{
  "contractName": "MagicEightBall",
  "abi": [
    {
      "inputs": [],
      "stateMutability": "nonpayable",
      "type": "constructor"
    },
    {
      "anonymous": false,
      "inputs": [
        {
          "indexed": true,
          "internalType": "address",
          "name": "owner",
          "type": "address"
        },
        {
          "indexed": true,
          "internalType": "address",
          "name": "approved",
          "type": "address"
        },
        {
          "indexed": true,
          "internalType": "uint256",
          "name": "tokenId",
          "type": "uint256"
        }
      ],
      "name": "Approval",
      "type": "event"
    },
    {
      "anonymous": false,
      "inputs": [
        {
          "indexed": true,
          "internalType": "address",
          "name": "owner",
          "type": "address"
        },
        {
          "indexed": true,
          "internalType": "address",
          "name": "operator",
          "type": "address"
        },
        {
          "indexed": false,
          "internalType": "bool",
          "name": "approved",
          "type": "bool"
        }
      ],
      "name": "ApprovalForAll",
      "type": "event"
    },
    {
      "anonymous": false,
      "inputs": [
        {
          "indexed": true,
          "internalType": "address",
          "name": "previousOwner",
          "type": "address"
        },
        {
          "indexed": true,
          "internalType": "address",
          "name": "newOwner",
          "type": "address"
        }
      ],
      "name": "OwnershipTransferred",
      "type": "event"
    },
    {
      "anonymous": false,
      "inputs": [
        {
          "indexed": true,
          "internalType": "address",
          "name": "from",
          "type": "address"
        },
        {
          "indexed": true,
          "internalType": "address",
          "name": "to",
          "type": "address"
        },
        {
          "indexed": true,
          "internalType": "uint256",
          "name": "tokenId",
          "type": "uint256"
        }
      ],
      "name": "Transfer",
      "type": "event"
    },
    {
      "inputs": [
        {
          "internalType": "address",
          "name": "to",
          "type": "address"
        },
        {
          "internalType": "uint256",
          "name": "tokenId",
          "type": "uint256"
        }
      ],
      "name": "approve",
      "outputs": [],
      "stateMutability": "nonpayable",
      "type": "function"
    },
    {
      "inputs": [
        {
          "internalType": "address",
          "name": "owner",
          "type": "address"
        }
      ],
      "name": "balanceOf",
      "outputs": [
        {
          "internalType": "uint256",
          "name": "",
          "type": "uint256"
        }
      ],
      "stateMutability": "view",
      "type": "function",
      "constant": true
    },
    {
      "inputs": [
        {
          "internalType": "uint256",
          "name": "",
          "type": "uint256"
        }
      ],
      "name": "eightballs",
      "outputs": [
        {
          "internalType": "address",
          "name": "recipientAddress",
          "type": "address"
        },
        {
          "internalType": "uint256",
          "name": "tokenIndex",
          "type": "uint256"
        },
        {
          "internalType": "string",
          "name": "question",
          "type": "string"
        },
        {
          "internalType": "string",
          "name": "answer",
          "type": "string"
        },
        {
          "internalType": "string",
          "name": "uri",
          "type": "string"
        }
      ],
      "stateMutability": "view",
      "type": "function",
      "constant": true
    },
    {
      "inputs": [
        {
          "internalType": "uint256",
          "name": "tokenId",
          "type": "uint256"
        }
      ],
      "name": "getApproved",
      "outputs": [
        {
          "internalType": "address",
          "name": "",
          "type": "address"
        }
      ],
      "stateMutability": "view",
      "type": "function",
      "constant": true
    },
    {
      "inputs": [
        {
          "internalType": "address",
          "name": "owner",
          "type": "address"
        },
        {
          "internalType": "address",
          "name": "operator",
          "type": "address"
        }
      ],
      "name": "isApprovedForAll",
      "outputs": [
        {
          "internalType": "bool",
          "name": "",
          "type": "bool"
        }
      ],
      "stateMutability": "view",
      "type": "function",
      "constant": true
    },
    {
      "inputs": [],
      "name": "mintPrice",
      "outputs": [
        {
          "internalType": "uint256",
          "name": "",
          "type": "uint256"
        }
      ],
      "stateMutability": "view",
      "type": "function",
      "constant": true
    },
    {
      "inputs": [],
      "name": "name",
      "outputs": [
        {
          "internalType": "string",
          "name": "",
          "type": "string"
        }
      ],
      "stateMutability": "view",
      "type": "function",
      "constant": true
    },
    {
      "inputs": [],
      "name": "owner",
      "outputs": [
        {
          "internalType": "address",
          "name": "",
          "type": "address"
        }
      ],
      "stateMutability": "view",
      "type": "function",
      "constant": true
    },
    {
      "inputs": [],
      "name": "ownerAddress",
      "outputs": [
        {
          "internalType": "address",
          "name": "",
          "type": "address"
        }
      ],
      "stateMutability": "view",
      "type": "function",
      "constant": true
    },
    {
      "inputs": [
        {
          "internalType": "uint256",
          "name": "tokenId",
          "type": "uint256"
        }
      ],
      "name": "ownerOf",
      "outputs": [
        {
          "internalType": "address",
          "name": "",
          "type": "address"
        }
      ],
      "stateMutability": "view",
      "type": "function",
      "constant": true
    },
    {
      "inputs": [],
      "name": "renounceOwnership",
      "outputs": [],
      "stateMutability": "nonpayable",
      "type": "function"
    },
    {
      "inputs": [
        {
          "internalType": "address",
          "name": "from",
          "type": "address"
        },
        {
          "internalType": "address",
          "name": "to",
          "type": "address"
        },
        {
          "internalType": "uint256",
          "name": "tokenId",
          "type": "uint256"
        }
      ],
      "name": "safeTransferFrom",
      "outputs": [],
      "stateMutability": "nonpayable",
      "type": "function"
    },
    {
      "inputs": [
        {
          "internalType": "address",
          "name": "from",
          "type": "address"
        },
        {
          "internalType": "address",
          "name": "to",
          "type": "address"
        },
        {
          "internalType": "uint256",
          "name": "tokenId",
          "type": "uint256"
        },
        {
          "internalType": "bytes",
          "name": "_data",
          "type": "bytes"
        }
      ],
      "name": "safeTransferFrom",
      "outputs": [],
      "stateMutability": "nonpayable",
      "type": "function"
    },
    {
      "inputs": [
        {
          "internalType": "address",
          "name": "operator",
          "type": "address"
        },
        {
          "internalType": "bool",
          "name": "approved",
          "type": "bool"
        }
      ],
      "name": "setApprovalForAll",
      "outputs": [],
      "stateMutability": "nonpayable",
      "type": "function"
    },
    {
      "inputs": [
        {
          "internalType": "bytes4",
          "name": "interfaceId",
          "type": "bytes4"
        }
      ],
      "name": "supportsInterface",
      "outputs": [
        {
          "internalType": "bool",
          "name": "",
          "type": "bool"
        }
      ],
      "stateMutability": "view",
      "type": "function",
      "constant": true
    },
    {
      "inputs": [],
      "name": "symbol",
      "outputs": [
        {
          "internalType": "string",
          "name": "",
          "type": "string"
        }
      ],
      "stateMutability": "view",
      "type": "function",
      "constant": true
    },
    {
      "inputs": [
        {
          "internalType": "uint256",
          "name": "",
          "type": "uint256"
        }
      ],
      "name": "tokenIndexToUsers",
      "outputs": [
        {
          "internalType": "address",
          "name": "",
          "type": "address"
        }
      ],
      "stateMutability": "view",
      "type": "function",
      "constant": true
    },
    {
      "inputs": [
        {
          "internalType": "uint256",
          "name": "tokenId",
          "type": "uint256"
        }
      ],
      "name": "tokenURI",
      "outputs": [
        {
          "internalType": "string",
          "name": "",
          "type": "string"
        }
      ],
      "stateMutability": "view",
      "type": "function",
      "constant": true
    },
    {
      "inputs": [
        {
          "internalType": "address",
          "name": "from",
          "type": "address"
        },
        {
          "internalType": "address",
          "name": "to",
          "type": "address"
        },
        {
          "internalType": "uint256",
          "name": "tokenId",
          "type": "uint256"
        }
      ],
      "name": "transferFrom",
      "outputs": [],
      "stateMutability": "nonpayable",
      "type": "function"
    },
    {
      "inputs": [
        {
          "internalType": "address",
          "name": "newOwner",
          "type": "address"
        }
      ],
      "name": "transferOwnership",
      "outputs": [],
      "stateMutability": "nonpayable",
      "type": "function"
    },
    {
      "inputs": [],
      "name": "random",
      "outputs": [
        {
          "internalType": "uint256",
          "name": "",
          "type": "uint256"
        }
      ],
      "stateMutability": "view",
      "type": "function",
      "constant": true
    },
    {
      "inputs": [
        {
          "internalType": "address",
          "name": "recipient",
          "type": "address"
        },
        {
          "internalType": "string",
          "name": "query",
          "type": "string"
        },
        {
          "internalType": "string",
          "name": "predict",
          "type": "string"
        },
        {
          "internalType": "string",
          "name": "tokenURI",
          "type": "string"
        }
      ],
      "name": "mintNFT",
      "outputs": [
        {
          "internalType": "uint256",
          "name": "",
          "type": "uint256"
        }
      ],
      "stateMutability": "nonpayable",
      "type": "function"
    },
    {
      "inputs": [
        {
          "internalType": "string",
          "name": "query",
          "type": "string"
        },
        {
          "internalType": "string",
          "name": "predict",
          "type": "string"
        },
        {
          "internalType": "string",
          "name": "specificUri",
          "type": "string"
        }
      ],
      "name": "publiMint",
      "outputs": [
        {
          "internalType": "uint256",
          "name": "",
          "type": "uint256"
        }
      ],
      "stateMutability": "payable",
      "type": "function",
      "payable": true
    },
    {
      "inputs": [
        {
          "internalType": "uint256",
          "name": "tokenId",
          "type": "uint256"
        }
      ],
      "name": "burnNft",
      "outputs": [
        {
          "internalType": "bool",
          "name": "",
          "type": "bool"
        }
      ],
      "stateMutability": "nonpayable",
      "type": "function"
    },
    {
      "inputs": [],
      "name": "getEightBalls",
      "outputs": [
        {
          "components": [
            {
              "internalType": "address",
              "name": "recipientAddress",
              "type": "address"
            },
            {
              "internalType": "uint256",
              "name": "tokenIndex",
              "type": "uint256"
            },
            {
              "internalType": "string",
              "name": "question",
              "type": "string"
            },
            {
              "internalType": "string",
              "name": "answer",
              "type": "string"
            },
            {
              "internalType": "string",
              "name": "uri",
              "type": "string"
            }
          ],
          "internalType": "struct MagicEightBall.EightBall[]",
          "name": "",
          "type": "tuple[]"
        }
      ],
      "stateMutability": "view",
      "type": "function",
      "constant": true
    }
  ],
  "bytecode": "0x60806040523480156200001157600080fd5b506040518060400160405280600e81526020017f4d61676963456967687442616c6c0000000000000000000000000000000000008152506040518060400160405280600381526020017f4d38420000000000000000000000000000000000000000000000000000000000815250816000908051906020019062000096929190620001b4565b508060019080519060200190620000af929190620001b4565b505050620000d2620000c6620000e660201b60201c565b620000ee60201b60201c565b662386f26fc10000600a81905550620002c9565b600033905090565b6000600760009054906101000a900473ffffffffffffffffffffffffffffffffffffffff16905081600760006101000a81548173ffffffffffffffffffffffffffffffffffffffff021916908373ffffffffffffffffffffffffffffffffffffffff1602179055508173ffffffffffffffffffffffffffffffffffffffff168173ffffffffffffffffffffffffffffffffffffffff167f8be0079c531659141344cd1fd0a4f28419497f9722a3daafe3b4186f6b6457e060405160405180910390a35050565b828054620001c29062000264565b90600052602060002090601f016020900481019282620001e6576000855562000232565b82601f106200020157805160ff191683800117855562000232565b8280016001018555821562000232579182015b828111156200023157825182559160200191906001019062000214565b5b50905062000241919062000245565b5090565b5b808211156200026057600081600090555060010162000246565b5090565b600060028204905060018216806200027d57607f821691505b602082108114156200029457620002936200029a565b5b50919050565b7f4e487b7100000000000000000000000000000000000000000000000000000000600052602260045260246000fd5b61404580620002d96000396000f3fe6080604052600436106101665760003560e01c80637791d3f3116100d1578063a22cb4651161008a578063c87b56dd11610064578063c87b56dd14610557578063e985e9c514610594578063eff64570146105d1578063f2fde38b1461061257610166565b8063a22cb465146104da578063b88d4fde14610503578063b97253bf1461052c57610166565b80637791d3f3146103af57806386e129dc146103ec5780638da5cb5b146104295780638f84aa091461045457806395d89b411461047f5780639e14bf58146104aa57610166565b806342842e0e1161012357806342842e0e1461029f5780635ec01e4d146102c85780636352211e146102f35780636817c76c1461033057806370a082311461035b578063715018a61461039857610166565b806301ffc9a71461016b57806306fdde03146101a8578063081812fc146101d3578063095ea7b31461021057806323b872dd146102395780633d5efefe14610262575b600080fd5b34801561017757600080fd5b50610192600480360381019061018d9190612cd8565b61063b565b60405161019f91906133ec565b60405180910390f35b3480156101b457600080fd5b506101bd61071d565b6040516101ca9190613407565b60405180910390f35b3480156101df57600080fd5b506101fa60048036038101906101f59190612dc1565b6107af565b60405161020791906132fb565b60405180910390f35b34801561021c57600080fd5b5061023760048036038101906102329190612c9c565b610834565b005b34801561024557600080fd5b50610260600480360381019061025b9190612aeb565b61094c565b005b34801561026e57600080fd5b5061028960048036038101906102849190612dc1565b6109ac565b60405161029691906133ec565b60405180910390f35b3480156102ab57600080fd5b506102c660048036038101906102c19190612aeb565b610a2b565b005b3480156102d457600080fd5b506102dd610a4b565b6040516102ea9190613669565b60405180910390f35b3480156102ff57600080fd5b5061031a60048036038101906103159190612dc1565b610a7e565b60405161032791906132fb565b60405180910390f35b34801561033c57600080fd5b50610345610b30565b6040516103529190613669565b60405180910390f35b34801561036757600080fd5b50610382600480360381019061037d9190612a86565b610b36565b60405161038f9190613669565b60405180910390f35b3480156103a457600080fd5b506103ad610bee565b005b3480156103bb57600080fd5b506103d660048036038101906103d19190612bf1565b610c76565b6040516103e39190613669565b60405180910390f35b3480156103f857600080fd5b50610413600480360381019061040e9190612dc1565b610e96565b60405161042091906132fb565b60405180910390f35b34801561043557600080fd5b5061043e610ec9565b60405161044b91906132fb565b60405180910390f35b34801561046057600080fd5b50610469610ef3565b60405161047691906132fb565b60405180910390f35b34801561048b57600080fd5b50610494610f19565b6040516104a19190613407565b60405180910390f35b6104c460048036038101906104bf9190612d2a565b610fab565b6040516104d19190613669565b60405180910390f35b3480156104e657600080fd5b5061050160048036038101906104fc9190612bb5565b61115d565b005b34801561050f57600080fd5b5061052a60048036038101906105259190612b3a565b611173565b005b34801561053857600080fd5b506105416111d5565b60405161054e91906133ca565b60405180910390f35b34801561056357600080fd5b5061057e60048036038101906105799190612dc1565b61144a565b60405161058b9190613407565b60405180910390f35b3480156105a057600080fd5b506105bb60048036038101906105b69190612aaf565b61159c565b6040516105c891906133ec565b60405180910390f35b3480156105dd57600080fd5b506105f860048036038101906105f39190612dc1565b611630565b604051610609959493929190613362565b60405180910390f35b34801561061e57600080fd5b5061063960048036038101906106349190612a86565b61182e565b005b60007f80ac58cd000000000000000000000000000000000000000000000000000000007bffffffffffffffffffffffffffffffffffffffffffffffffffffffff1916827bffffffffffffffffffffffffffffffffffffffffffffffffffffffff1916148061070657507f5b5e139f000000000000000000000000000000000000000000000000000000007bffffffffffffffffffffffffffffffffffffffffffffffffffffffff1916827bffffffffffffffffffffffffffffffffffffffffffffffffffffffff1916145b80610716575061071582611926565b5b9050919050565b60606000805461072c90613909565b80601f016020809104026020016040519081016040528092919081815260200182805461075890613909565b80156107a55780601f1061077a576101008083540402835291602001916107a5565b820191906000526020600020905b81548152906001019060200180831161078857829003601f168201915b5050505050905090565b60006107ba82611990565b6107f9576040517f08c379a00000000000000000000000000000000000000000000000000000000081526004016107f0906135a9565b60405180910390fd5b6004600083815260200190815260200160002060009054906101000a900473ffffffffffffffffffffffffffffffffffffffff169050919050565b600061083f82610a7e565b90508073ffffffffffffffffffffffffffffffffffffffff168373ffffffffffffffffffffffffffffffffffffffff1614156108b0576040517f08c379a00000000000000000000000000000000000000000000000000000000081526004016108a790613629565b60405180910390fd5b8073ffffffffffffffffffffffffffffffffffffffff166108cf6119fc565b73ffffffffffffffffffffffffffffffffffffffff1614806108fe57506108fd816108f86119fc565b61159c565b5b61093d576040517f08c379a0000000000000000000000000000000000000000000000000000000008152600401610934906134e9565b60405180910390fd5b6109478383611a04565b505050565b61095d6109576119fc565b82611abd565b61099c576040517f08c379a000000000000000000000000000000000000000000000000000000000815260040161099390613649565b60405180910390fd5b6109a7838383611b9b565b505050565b60006009600083815260200190815260200160002060009054906101000a900473ffffffffffffffffffffffffffffffffffffffff1673ffffffffffffffffffffffffffffffffffffffff163373ffffffffffffffffffffffffffffffffffffffff1614610a1957600080fd5b610a2282611df7565b60019050919050565b610a4683838360405180602001604052806000815250611173565b505050565b60004442604051602001610a609291906132cf565b6040516020818303038152906040528051906020012060001c905090565b6000806002600084815260200190815260200160002060009054906101000a900473ffffffffffffffffffffffffffffffffffffffff169050600073ffffffffffffffffffffffffffffffffffffffff168173ffffffffffffffffffffffffffffffffffffffff161415610b27576040517f08c379a0000000000000000000000000000000000000000000000000000000008152600401610b1e90613529565b60405180910390fd5b80915050919050565b600a5481565b60008073ffffffffffffffffffffffffffffffffffffffff168273ffffffffffffffffffffffffffffffffffffffff161415610ba7576040517f08c379a0000000000000000000000000000000000000000000000000000000008152600401610b9e90613509565b60405180910390fd5b600360008373ffffffffffffffffffffffffffffffffffffffff1673ffffffffffffffffffffffffffffffffffffffff168152602001908152602001600020549050919050565b610bf66119fc565b73ffffffffffffffffffffffffffffffffffffffff16610c14610ec9565b73ffffffffffffffffffffffffffffffffffffffff1614610c6a576040517f08c379a0000000000000000000000000000000000000000000000000000000008152600401610c61906135c9565b60405180910390fd5b610c746000611e4a565b565b6000610c806119fc565b73ffffffffffffffffffffffffffffffffffffffff16610c9e610ec9565b73ffffffffffffffffffffffffffffffffffffffff1614610cf4576040517f08c379a0000000000000000000000000000000000000000000000000000000008152600401610ceb906135c9565b60405180910390fd5b610cfe6008611f10565b6000610d0a6008611f26565b9050610d168682611f34565b610d208184612102565b856009600083815260200190815260200160002060006101000a81548173ffffffffffffffffffffffffffffffffffffffff021916908373ffffffffffffffffffffffffffffffffffffffff16021790555060006040518060a001604052808873ffffffffffffffffffffffffffffffffffffffff168152602001838152602001878152602001868152602001858152509050600c81908060018154018082558091505060019003906000526020600020906005020160009091909190915060008201518160000160006101000a81548173ffffffffffffffffffffffffffffffffffffffff021916908373ffffffffffffffffffffffffffffffffffffffff160217905550602082015181600101556040820151816002019080519060200190610e4c92919061286a565b506060820151816003019080519060200190610e6992919061286a565b506080820151816004019080519060200190610e8692919061286a565b5050508192505050949350505050565b60096020528060005260406000206000915054906101000a900473ffffffffffffffffffffffffffffffffffffffff1681565b6000600760009054906101000a900473ffffffffffffffffffffffffffffffffffffffff16905090565b600b60009054906101000a900473ffffffffffffffffffffffffffffffffffffffff1681565b606060018054610f2890613909565b80601f0160208091040260200160405190810160405280929190818152602001828054610f5490613909565b8015610fa15780601f10610f7657610100808354040283529160200191610fa1565b820191906000526020600020905b815481529060010190602001808311610f8457829003601f168201915b5050505050905090565b6000600a54341015610fbc57600080fd5b610fc66008611f10565b6000610fd26008611f26565b9050610fde3382611f34565b610fe88184612102565b336009600083815260200190815260200160002060006101000a81548173ffffffffffffffffffffffffffffffffffffffff021916908373ffffffffffffffffffffffffffffffffffffffff16021790555060006040518060a001604052803373ffffffffffffffffffffffffffffffffffffffff168152602001838152602001878152602001868152602001858152509050600c81908060018154018082558091505060019003906000526020600020906005020160009091909190915060008201518160000160006101000a81548173ffffffffffffffffffffffffffffffffffffffff021916908373ffffffffffffffffffffffffffffffffffffffff16021790555060208201518160010155604082015181600201908051906020019061111492919061286a565b50606082015181600301908051906020019061113192919061286a565b50608082015181600401908051906020019061114e92919061286a565b50505081925050509392505050565b61116f6111686119fc565b8383612176565b5050565b61118461117e6119fc565b83611abd565b6111c3576040517f08c379a00000000000000000000000000000000000000000000000000000000081526004016111ba90613649565b60405180910390fd5b6111cf848484846122e3565b50505050565b6060600c805480602002602001604051908101604052809291908181526020016000905b8282101561144157838290600052602060002090600502016040518060a00160405290816000820160009054906101000a900473ffffffffffffffffffffffffffffffffffffffff1673ffffffffffffffffffffffffffffffffffffffff1673ffffffffffffffffffffffffffffffffffffffff1681526020016001820154815260200160028201805461128c90613909565b80601f01602080910402602001604051908101604052809291908181526020018280546112b890613909565b80156113055780601f106112da57610100808354040283529160200191611305565b820191906000526020600020905b8154815290600101906020018083116112e857829003601f168201915b5050505050815260200160038201805461131e90613909565b80601f016020809104026020016040519081016040528092919081815260200182805461134a90613909565b80156113975780601f1061136c57610100808354040283529160200191611397565b820191906000526020600020905b81548152906001019060200180831161137a57829003601f168201915b505050505081526020016004820180546113b090613909565b80601f01602080910402602001604051908101604052809291908181526020018280546113dc90613909565b80156114295780601f106113fe57610100808354040283529160200191611429565b820191906000526020600020905b81548152906001019060200180831161140c57829003601f168201915b505050505081525050815260200190600101906111f9565b50505050905090565b606061145582611990565b611494576040517f08c379a000000000000000000000000000000000000000000000000000000000815260040161148b90613589565b60405180910390fd5b60006006600084815260200190815260200160002080546114b490613909565b80601f01602080910402602001604051908101604052809291908181526020018280546114e090613909565b801561152d5780601f106115025761010080835404028352916020019161152d565b820191906000526020600020905b81548152906001019060200180831161151057829003601f168201915b50505050509050600061153e61233f565b9050600081511415611554578192505050611597565b6000825111156115895780826040516020016115719291906132ab565b60405160208183030381529060405292505050611597565b61159284612356565b925050505b919050565b6000600560008473ffffffffffffffffffffffffffffffffffffffff1673ffffffffffffffffffffffffffffffffffffffff16815260200190815260200160002060008373ffffffffffffffffffffffffffffffffffffffff1673ffffffffffffffffffffffffffffffffffffffff16815260200190815260200160002060009054906101000a900460ff16905092915050565b600c818154811061164057600080fd5b90600052602060002090600502016000915090508060000160009054906101000a900473ffffffffffffffffffffffffffffffffffffffff169080600101549080600201805461168f90613909565b80601f01602080910402602001604051908101604052809291908181526020018280546116bb90613909565b80156117085780601f106116dd57610100808354040283529160200191611708565b820191906000526020600020905b8154815290600101906020018083116116eb57829003601f168201915b50505050509080600301805461171d90613909565b80601f016020809104026020016040519081016040528092919081815260200182805461174990613909565b80156117965780601f1061176b57610100808354040283529160200191611796565b820191906000526020600020905b81548152906001019060200180831161177957829003601f168201915b5050505050908060040180546117ab90613909565b80601f01602080910402602001604051908101604052809291908181526020018280546117d790613909565b80156118245780601f106117f957610100808354040283529160200191611824565b820191906000526020600020905b81548152906001019060200180831161180757829003601f168201915b5050505050905085565b6118366119fc565b73ffffffffffffffffffffffffffffffffffffffff16611854610ec9565b73ffffffffffffffffffffffffffffffffffffffff16146118aa576040517f08c379a00000000000000000000000000000000000000000000000000000000081526004016118a1906135c9565b60405180910390fd5b600073ffffffffffffffffffffffffffffffffffffffff168173ffffffffffffffffffffffffffffffffffffffff16141561191a576040517f08c379a000000000000000000000000000000000000000000000000000000000815260040161191190613449565b60405180910390fd5b61192381611e4a565b50565b60007f01ffc9a7000000000000000000000000000000000000000000000000000000007bffffffffffffffffffffffffffffffffffffffffffffffffffffffff1916827bffffffffffffffffffffffffffffffffffffffffffffffffffffffff1916149050919050565b60008073ffffffffffffffffffffffffffffffffffffffff166002600084815260200190815260200160002060009054906101000a900473ffffffffffffffffffffffffffffffffffffffff1673ffffffffffffffffffffffffffffffffffffffff1614159050919050565b600033905090565b816004600083815260200190815260200160002060006101000a81548173ffffffffffffffffffffffffffffffffffffffff021916908373ffffffffffffffffffffffffffffffffffffffff160217905550808273ffffffffffffffffffffffffffffffffffffffff16611a7783610a7e565b73ffffffffffffffffffffffffffffffffffffffff167f8c5be1e5ebec7d5bd14f71427d1e84f3dd0314c0f7b2291e5b200ac8c7c3b92560405160405180910390a45050565b6000611ac882611990565b611b07576040517f08c379a0000000000000000000000000000000000000000000000000000000008152600401611afe906134c9565b60405180910390fd5b6000611b1283610a7e565b90508073ffffffffffffffffffffffffffffffffffffffff168473ffffffffffffffffffffffffffffffffffffffff161480611b8157508373ffffffffffffffffffffffffffffffffffffffff16611b69846107af565b73ffffffffffffffffffffffffffffffffffffffff16145b80611b925750611b91818561159c565b5b91505092915050565b8273ffffffffffffffffffffffffffffffffffffffff16611bbb82610a7e565b73ffffffffffffffffffffffffffffffffffffffff1614611c11576040517f08c379a0000000000000000000000000000000000000000000000000000000008152600401611c08906135e9565b60405180910390fd5b600073ffffffffffffffffffffffffffffffffffffffff168273ffffffffffffffffffffffffffffffffffffffff161415611c81576040517f08c379a0000000000000000000000000000000000000000000000000000000008152600401611c7890613489565b60405180910390fd5b611c8c8383836123fd565b611c97600082611a04565b6001600360008573ffffffffffffffffffffffffffffffffffffffff1673ffffffffffffffffffffffffffffffffffffffff1681526020019081526020016000206000828254611ce7919061381f565b925050819055506001600360008473ffffffffffffffffffffffffffffffffffffffff1673ffffffffffffffffffffffffffffffffffffffff1681526020019081526020016000206000828254611d3e9190613798565b92505081905550816002600083815260200190815260200160002060006101000a81548173ffffffffffffffffffffffffffffffffffffffff021916908373ffffffffffffffffffffffffffffffffffffffff160217905550808273ffffffffffffffffffffffffffffffffffffffff168473ffffffffffffffffffffffffffffffffffffffff167fddf252ad1be2c89b69c2b068fc378daa952ba7f163c4a11628f55a4df523b3ef60405160405180910390a4505050565b611e0081612402565b6000600660008381526020019081526020016000208054611e2090613909565b905014611e4757600660008281526020019081526020016000206000611e4691906128f0565b5b50565b6000600760009054906101000a900473ffffffffffffffffffffffffffffffffffffffff16905081600760006101000a81548173ffffffffffffffffffffffffffffffffffffffff021916908373ffffffffffffffffffffffffffffffffffffffff1602179055508173ffffffffffffffffffffffffffffffffffffffff168173ffffffffffffffffffffffffffffffffffffffff167f8be0079c531659141344cd1fd0a4f28419497f9722a3daafe3b4186f6b6457e060405160405180910390a35050565b6001816000016000828254019250508190555050565b600081600001549050919050565b600073ffffffffffffffffffffffffffffffffffffffff168273ffffffffffffffffffffffffffffffffffffffff161415611fa4576040517f08c379a0000000000000000000000000000000000000000000000000000000008152600401611f9b90613569565b60405180910390fd5b611fad81611990565b15611fed576040517f08c379a0000000000000000000000000000000000000000000000000000000008152600401611fe490613469565b60405180910390fd5b611ff9600083836123fd565b6001600360008473ffffffffffffffffffffffffffffffffffffffff1673ffffffffffffffffffffffffffffffffffffffff16815260200190815260200160002060008282546120499190613798565b92505081905550816002600083815260200190815260200160002060006101000a81548173ffffffffffffffffffffffffffffffffffffffff021916908373ffffffffffffffffffffffffffffffffffffffff160217905550808273ffffffffffffffffffffffffffffffffffffffff16600073ffffffffffffffffffffffffffffffffffffffff167fddf252ad1be2c89b69c2b068fc378daa952ba7f163c4a11628f55a4df523b3ef60405160405180910390a45050565b61210b82611990565b61214a576040517f08c379a000000000000000000000000000000000000000000000000000000000815260040161214190613549565b60405180910390fd5b8060066000848152602001908152602001600020908051906020019061217192919061286a565b505050565b8173ffffffffffffffffffffffffffffffffffffffff168373ffffffffffffffffffffffffffffffffffffffff1614156121e5576040517f08c379a00000000000000000000000000000000000000000000000000000000081526004016121dc906134a9565b60405180910390fd5b80600560008573ffffffffffffffffffffffffffffffffffffffff1673ffffffffffffffffffffffffffffffffffffffff16815260200190815260200160002060008473ffffffffffffffffffffffffffffffffffffffff1673ffffffffffffffffffffffffffffffffffffffff16815260200190815260200160002060006101000a81548160ff0219169083151502179055508173ffffffffffffffffffffffffffffffffffffffff168373ffffffffffffffffffffffffffffffffffffffff167f17307eab39ab6107e8899845ad3d59bd9653f200f220920489ca2b5937696c31836040516122d691906133ec565b60405180910390a3505050565b6122ee848484611b9b565b6122fa84848484612513565b612339576040517f08c379a000000000000000000000000000000000000000000000000000000000815260040161233090613429565b60405180910390fd5b50505050565b606060405180602001604052806000815250905090565b606061236182611990565b6123a0576040517f08c379a000000000000000000000000000000000000000000000000000000000815260040161239790613609565b60405180910390fd5b60006123aa61233f565b905060008151116123ca57604051806020016040528060008152506123f5565b806123d4846126aa565b6040516020016123e59291906132ab565b6040516020818303038152906040525b915050919050565b505050565b600061240d82610a7e565b905061241b816000846123fd565b612426600083611a04565b6001600360008373ffffffffffffffffffffffffffffffffffffffff1673ffffffffffffffffffffffffffffffffffffffff1681526020019081526020016000206000828254612476919061381f565b925050819055506002600083815260200190815260200160002060006101000a81549073ffffffffffffffffffffffffffffffffffffffff021916905581600073ffffffffffffffffffffffffffffffffffffffff168273ffffffffffffffffffffffffffffffffffffffff167fddf252ad1be2c89b69c2b068fc378daa952ba7f163c4a11628f55a4df523b3ef60405160405180910390a45050565b60006125348473ffffffffffffffffffffffffffffffffffffffff16612857565b1561269d578373ffffffffffffffffffffffffffffffffffffffff1663150b7a0261255d6119fc565b8786866040518563ffffffff1660e01b815260040161257f9493929190613316565b602060405180830381600087803b15801561259957600080fd5b505af19250505080156125ca57506040513d601f19601f820116820180604052508101906125c79190612d01565b60015b61264d573d80600081146125fa576040519150601f19603f3d011682016040523d82523d6000602084013e6125ff565b606091505b50600081511415612645576040517f08c379a000000000000000000000000000000000000000000000000000000000815260040161263c90613429565b60405180910390fd5b805181602001fd5b63150b7a0260e01b7bffffffffffffffffffffffffffffffffffffffffffffffffffffffff1916817bffffffffffffffffffffffffffffffffffffffffffffffffffffffff1916149150506126a2565b600190505b949350505050565b606060008214156126f2576040518060400160405280600181526020017f30000000000000000000000000000000000000000000000000000000000000008152509050612852565b600082905060005b6000821461272457808061270d9061396c565b915050600a8261271d91906137ee565b91506126fa565b60008167ffffffffffffffff811115612766577f4e487b7100000000000000000000000000000000000000000000000000000000600052604160045260246000fd5b6040519080825280601f01601f1916602001820160405280156127985781602001600182028036833780820191505090505b5090505b6000851461284b576001826127b1919061381f565b9150600a856127c091906139bf565b60306127cc9190613798565b60f81b818381518110612808577f4e487b7100000000000000000000000000000000000000000000000000000000600052603260045260246000fd5b60200101907effffffffffffffffffffffffffffffffffffffffffffffffffffffffffffff1916908160001a905350600a8561284491906137ee565b945061279c565b8093505050505b919050565b600080823b905060008111915050919050565b82805461287690613909565b90600052602060002090601f01602090048101928261289857600085556128df565b82601f106128b157805160ff19168380011785556128df565b828001600101855582156128df579182015b828111156128de5782518255916020019190600101906128c3565b5b5090506128ec9190612930565b5090565b5080546128fc90613909565b6000825580601f1061290e575061292d565b601f01602090049060005260206000209081019061292c9190612930565b5b50565b5b80821115612949576000816000905550600101612931565b5090565b600061296061295b846136a9565b613684565b90508281526020810184848401111561297857600080fd5b6129838482856138c7565b509392505050565b600061299e612999846136da565b613684565b9050828152602081018484840111156129b657600080fd5b6129c18482856138c7565b509392505050565b6000813590506129d881613fb3565b92915050565b6000813590506129ed81613fca565b92915050565b600081359050612a0281613fe1565b92915050565b600081519050612a1781613fe1565b92915050565b600082601f830112612a2e57600080fd5b8135612a3e84826020860161294d565b91505092915050565b600082601f830112612a5857600080fd5b8135612a6884826020860161298b565b91505092915050565b600081359050612a8081613ff8565b92915050565b600060208284031215612a9857600080fd5b6000612aa6848285016129c9565b91505092915050565b60008060408385031215612ac257600080fd5b6000612ad0858286016129c9565b9250506020612ae1858286016129c9565b9150509250929050565b600080600060608486031215612b0057600080fd5b6000612b0e868287016129c9565b9350506020612b1f868287016129c9565b9250506040612b3086828701612a71565b9150509250925092565b60008060008060808587031215612b5057600080fd5b6000612b5e878288016129c9565b9450506020612b6f878288016129c9565b9350506040612b8087828801612a71565b925050606085013567ffffffffffffffff811115612b9d57600080fd5b612ba987828801612a1d565b91505092959194509250565b60008060408385031215612bc857600080fd5b6000612bd6858286016129c9565b9250506020612be7858286016129de565b9150509250929050565b60008060008060808587031215612c0757600080fd5b6000612c15878288016129c9565b945050602085013567ffffffffffffffff811115612c3257600080fd5b612c3e87828801612a47565b935050604085013567ffffffffffffffff811115612c5b57600080fd5b612c6787828801612a47565b925050606085013567ffffffffffffffff811115612c8457600080fd5b612c9087828801612a47565b91505092959194509250565b60008060408385031215612caf57600080fd5b6000612cbd858286016129c9565b9250506020612cce85828601612a71565b9150509250929050565b600060208284031215612cea57600080fd5b6000612cf8848285016129f3565b91505092915050565b600060208284031215612d1357600080fd5b6000612d2184828501612a08565b91505092915050565b600080600060608486031215612d3f57600080fd5b600084013567ffffffffffffffff811115612d5957600080fd5b612d6586828701612a47565b935050602084013567ffffffffffffffff811115612d8257600080fd5b612d8e86828701612a47565b925050604084013567ffffffffffffffff811115612dab57600080fd5b612db786828701612a47565b9150509250925092565b600060208284031215612dd357600080fd5b6000612de184828501612a71565b91505092915050565b6000612df683836131f2565b905092915050565b612e0781613853565b82525050565b612e1681613853565b82525050565b6000612e278261371b565b612e318185613749565b935083602082028501612e438561370b565b8060005b85811015612e7f5784840389528151612e608582612dea565b9450612e6b8361373c565b925060208a01995050600181019050612e47565b50829750879550505050505092915050565b612e9a81613865565b82525050565b6000612eab82613726565b612eb5818561375a565b9350612ec58185602086016138d6565b612ece81613aac565b840191505092915050565b6000612ee482613731565b612eee818561376b565b9350612efe8185602086016138d6565b612f0781613aac565b840191505092915050565b6000612f1d82613731565b612f27818561377c565b9350612f378185602086016138d6565b612f4081613aac565b840191505092915050565b6000612f5682613731565b612f60818561378d565b9350612f708185602086016138d6565b80840191505092915050565b6000612f8960328361377c565b9150612f9482613abd565b604082019050919050565b6000612fac60268361377c565b9150612fb782613b0c565b604082019050919050565b6000612fcf601c8361377c565b9150612fda82613b5b565b602082019050919050565b6000612ff260248361377c565b9150612ffd82613b84565b604082019050919050565b600061301560198361377c565b915061302082613bd3565b602082019050919050565b6000613038602c8361377c565b915061304382613bfc565b604082019050919050565b600061305b60388361377c565b915061306682613c4b565b604082019050919050565b600061307e602a8361377c565b915061308982613c9a565b604082019050919050565b60006130a160298361377c565b91506130ac82613ce9565b604082019050919050565b60006130c4602e8361377c565b91506130cf82613d38565b604082019050919050565b60006130e760208361377c565b91506130f282613d87565b602082019050919050565b600061310a60318361377c565b915061311582613db0565b604082019050919050565b600061312d602c8361377c565b915061313882613dff565b604082019050919050565b600061315060208361377c565b915061315b82613e4e565b602082019050919050565b600061317360298361377c565b915061317e82613e77565b604082019050919050565b6000613196602f8361377c565b91506131a182613ec6565b604082019050919050565b60006131b960218361377c565b91506131c482613f15565b604082019050919050565b60006131dc60318361377c565b91506131e782613f64565b604082019050919050565b600060a08301600083015161320a6000860182612dfe565b50602083015161321d6020860182613276565b50604083015184820360408601526132358282612ed9565b9150506060830151848203606086015261324f8282612ed9565b915050608083015184820360808601526132698282612ed9565b9150508091505092915050565b61327f816138bd565b82525050565b61328e816138bd565b82525050565b6132a56132a0826138bd565b6139b5565b82525050565b60006132b78285612f4b565b91506132c38284612f4b565b91508190509392505050565b60006132db8285613294565b6020820191506132eb8284613294565b6020820191508190509392505050565b60006020820190506133106000830184612e0d565b92915050565b600060808201905061332b6000830187612e0d565b6133386020830186612e0d565b6133456040830185613285565b81810360608301526133578184612ea0565b905095945050505050565b600060a0820190506133776000830188612e0d565b6133846020830187613285565b81810360408301526133968186612f12565b905081810360608301526133aa8185612f12565b905081810360808301526133be8184612f12565b90509695505050505050565b600060208201905081810360008301526133e48184612e1c565b905092915050565b60006020820190506134016000830184612e91565b92915050565b600060208201905081810360008301526134218184612f12565b905092915050565b6000602082019050818103600083015261344281612f7c565b9050919050565b6000602082019050818103600083015261346281612f9f565b9050919050565b6000602082019050818103600083015261348281612fc2565b9050919050565b600060208201905081810360008301526134a281612fe5565b9050919050565b600060208201905081810360008301526134c281613008565b9050919050565b600060208201905081810360008301526134e28161302b565b9050919050565b600060208201905081810360008301526135028161304e565b9050919050565b6000602082019050818103600083015261352281613071565b9050919050565b6000602082019050818103600083015261354281613094565b9050919050565b60006020820190508181036000830152613562816130b7565b9050919050565b60006020820190508181036000830152613582816130da565b9050919050565b600060208201905081810360008301526135a2816130fd565b9050919050565b600060208201905081810360008301526135c281613120565b9050919050565b600060208201905081810360008301526135e281613143565b9050919050565b6000602082019050818103600083015261360281613166565b9050919050565b6000602082019050818103600083015261362281613189565b9050919050565b60006020820190508181036000830152613642816131ac565b9050919050565b60006020820190508181036000830152613662816131cf565b9050919050565b600060208201905061367e6000830184613285565b92915050565b600061368e61369f565b905061369a828261393b565b919050565b6000604051905090565b600067ffffffffffffffff8211156136c4576136c3613a7d565b5b6136cd82613aac565b9050602081019050919050565b600067ffffffffffffffff8211156136f5576136f4613a7d565b5b6136fe82613aac565b9050602081019050919050565b6000819050602082019050919050565b600081519050919050565b600081519050919050565b600081519050919050565b6000602082019050919050565b600082825260208201905092915050565b600082825260208201905092915050565b600082825260208201905092915050565b600082825260208201905092915050565b600081905092915050565b60006137a3826138bd565b91506137ae836138bd565b9250827fffffffffffffffffffffffffffffffffffffffffffffffffffffffffffffffff038211156137e3576137e26139f0565b5b828201905092915050565b60006137f9826138bd565b9150613804836138bd565b92508261381457613813613a1f565b5b828204905092915050565b600061382a826138bd565b9150613835836138bd565b925082821015613848576138476139f0565b5b828203905092915050565b600061385e8261389d565b9050919050565b60008115159050919050565b60007fffffffff0000000000000000000000000000000000000000000000000000000082169050919050565b600073ffffffffffffffffffffffffffffffffffffffff82169050919050565b6000819050919050565b82818337600083830152505050565b60005b838110156138f45780820151818401526020810190506138d9565b83811115613903576000848401525b50505050565b6000600282049050600182168061392157607f821691505b6020821081141561393557613934613a4e565b5b50919050565b61394482613aac565b810181811067ffffffffffffffff8211171561396357613962613a7d565b5b80604052505050565b6000613977826138bd565b91507fffffffffffffffffffffffffffffffffffffffffffffffffffffffffffffffff8214156139aa576139a96139f0565b5b600182019050919050565b6000819050919050565b60006139ca826138bd565b91506139d5836138bd565b9250826139e5576139e4613a1f565b5b828206905092915050565b7f4e487b7100000000000000000000000000000000000000000000000000000000600052601160045260246000fd5b7f4e487b7100000000000000000000000000000000000000000000000000000000600052601260045260246000fd5b7f4e487b7100000000000000000000000000000000000000000000000000000000600052602260045260246000fd5b7f4e487b7100000000000000000000000000000000000000000000000000000000600052604160045260246000fd5b6000601f19601f8301169050919050565b7f4552433732313a207472616e7366657220746f206e6f6e20455243373231526560008201527f63656976657220696d706c656d656e7465720000000000000000000000000000602082015250565b7f4f776e61626c653a206e6577206f776e657220697320746865207a65726f206160008201527f6464726573730000000000000000000000000000000000000000000000000000602082015250565b7f4552433732313a20746f6b656e20616c7265616479206d696e74656400000000600082015250565b7f4552433732313a207472616e7366657220746f20746865207a65726f2061646460008201527f7265737300000000000000000000000000000000000000000000000000000000602082015250565b7f4552433732313a20617070726f766520746f2063616c6c657200000000000000600082015250565b7f4552433732313a206f70657261746f7220717565727920666f72206e6f6e657860008201527f697374656e7420746f6b656e0000000000000000000000000000000000000000602082015250565b7f4552433732313a20617070726f76652063616c6c6572206973206e6f74206f7760008201527f6e6572206e6f7220617070726f76656420666f7220616c6c0000000000000000602082015250565b7f4552433732313a2062616c616e636520717565727920666f7220746865207a6560008201527f726f206164647265737300000000000000000000000000000000000000000000602082015250565b7f4552433732313a206f776e657220717565727920666f72206e6f6e657869737460008201527f656e7420746f6b656e0000000000000000000000000000000000000000000000602082015250565b7f45524337323155524953746f726167653a2055524920736574206f66206e6f6e60008201527f6578697374656e7420746f6b656e000000000000000000000000000000000000602082015250565b7f4552433732313a206d696e7420746f20746865207a65726f2061646472657373600082015250565b7f45524337323155524953746f726167653a2055524920717565727920666f722060008201527f6e6f6e6578697374656e7420746f6b656e000000000000000000000000000000602082015250565b7f4552433732313a20617070726f76656420717565727920666f72206e6f6e657860008201527f697374656e7420746f6b656e0000000000000000000000000000000000000000602082015250565b7f4f776e61626c653a2063616c6c6572206973206e6f7420746865206f776e6572600082015250565b7f4552433732313a207472616e73666572206f6620746f6b656e2074686174206960008201527f73206e6f74206f776e0000000000000000000000000000000000000000000000602082015250565b7f4552433732314d657461646174613a2055524920717565727920666f72206e6f60008201527f6e6578697374656e7420746f6b656e0000000000000000000000000000000000602082015250565b7f4552433732313a20617070726f76616c20746f2063757272656e74206f776e6560008201527f7200000000000000000000000000000000000000000000000000000000000000602082015250565b7f4552433732313a207472616e736665722063616c6c6572206973206e6f74206f60008201527f776e6572206e6f7220617070726f766564000000000000000000000000000000602082015250565b613fbc81613853565b8114613fc757600080fd5b50565b613fd381613865565b8114613fde57600080fd5b50565b613fea81613871565b8114613ff557600080fd5b50565b614001816138bd565b811461400c57600080fd5b5056fea264697066735822122053b06bcbda02d4f8f253af724963d453199821de018c901d69e7723afcbb27a864736f6c63430008020033",
  "immutableReferences": {},
  "source": "// SPDX-License-Identifier: MIT\n\npragma solidity 0.8.2;\n\nimport 'openzeppelin-solidity/contracts/token/ERC721/ERC721.sol';\nimport 'openzeppelin-solidity/contracts/utils/Counters.sol';\nimport 'openzeppelin-solidity/contracts/access/Ownable.sol';\nimport 'openzeppelin-solidity/contracts/token/ERC721/extensions/ERC721URIStorage.sol';\n\n\ncontract MagicEightBall is ERC721URIStorage, Ownable {\n    using Counters for Counters.Counter;\n    Counters.Counter private _tokenIds;\n    \n    mapping(uint => address) public tokenIndexToUsers;\n    //mapping(uint => string) public questions;\n    uint public mintPrice;\n    address public ownerAddress;\n    \n    \n    \n    struct EightBall {\n        address recipientAddress;\n        uint tokenIndex;\n        string question;\n        string answer;\n        string uri;\n    }\n    \n    EightBall[] public eightballs;\n    \n    constructor() public ERC721(\"MagicEightBall\", \"M8B\") {\n        mintPrice = 10000000000000000;\n    }\n\n    \n    function random() public view returns(uint){\n       return uint(keccak256(abi.encodePacked(block.difficulty, block.timestamp)));\n    }\n    \n    function mintNFT(address recipient, string memory query, string memory predict, string memory tokenURI)\n        public onlyOwner\n        returns (uint256)\n    {\n        _tokenIds.increment();\n        uint256 newItemId = _tokenIds.current();\n        _mint(recipient, newItemId);\n        _setTokenURI(newItemId, tokenURI);\n        tokenIndexToUsers[newItemId] = recipient;\n        //questions[newItemId] = query;\n        \n        EightBall memory newEightBall = EightBall({\n            recipientAddress:recipient,\n            tokenIndex : newItemId,\n            question : query,\n            answer : predict,\n            uri : tokenURI\n        });\n        eightballs.push(newEightBall);\n\n\n        return newItemId;\n    }\n    function publiMint(string memory query, string memory predict, string memory specificUri) public payable returns (uint256){\n        require(msg.value >= mintPrice);\n        _tokenIds.increment();\n        uint256 newItemId = _tokenIds.current();\n        _mint(msg.sender, newItemId);\n        _setTokenURI(newItemId, specificUri);\n        tokenIndexToUsers[newItemId] = msg.sender;\n        //questions[newItemId] = query;\n        EightBall memory newEightBall = EightBall({\n            recipientAddress : msg.sender,\n            tokenIndex : newItemId,\n            question : query,\n            answer : predict,\n            uri : specificUri\n        });\n        eightballs.push(newEightBall);\n\n\n        return newItemId;\n    }\n\n    function burnNft(uint tokenId) public returns(bool) {\n        require(msg.sender == tokenIndexToUsers[tokenId]);\n        _burn(tokenId);\n        return true;\n    }\n\n    function getEightBalls() public view returns (EightBall[] memory){\n        return eightballs;\n    }\n}",
  "sourcePath": "E:\\eightballnext\\contracts\\MagicEightBall.sol",
  "compiler": {
    "name": "solc",
    "version": "0.8.2+commit.661d1103.Emscripten.clang"
  },
  "schemaVersion": "3.4.3",
  "updatedAt": "2022-01-16T12:12:41.944Z",
  "networkType": "ethereum",
  "devdoc": {
    "kind": "dev",
    "methods": {
      "approve(address,uint256)": {
        "details": "See {IERC721-approve}."
      },
      "balanceOf(address)": {
        "details": "See {IERC721-balanceOf}."
      },
      "getApproved(uint256)": {
        "details": "See {IERC721-getApproved}."
      },
      "isApprovedForAll(address,address)": {
        "details": "See {IERC721-isApprovedForAll}."
      },
      "name()": {
        "details": "See {IERC721Metadata-name}."
      },
      "owner()": {
        "details": "Returns the address of the current owner."
      },
      "ownerOf(uint256)": {
        "details": "See {IERC721-ownerOf}."
      },
      "renounceOwnership()": {
        "details": "Leaves the contract without owner. It will not be possible to call `onlyOwner` functions anymore. Can only be called by the current owner. NOTE: Renouncing ownership will leave the contract without an owner, thereby removing any functionality that is only available to the owner."
      },
      "safeTransferFrom(address,address,uint256)": {
        "details": "See {IERC721-safeTransferFrom}."
      },
      "safeTransferFrom(address,address,uint256,bytes)": {
        "details": "See {IERC721-safeTransferFrom}."
      },
      "setApprovalForAll(address,bool)": {
        "details": "See {IERC721-setApprovalForAll}."
      },
      "supportsInterface(bytes4)": {
        "details": "See {IERC165-supportsInterface}."
      },
      "symbol()": {
        "details": "See {IERC721Metadata-symbol}."
      },
      "tokenURI(uint256)": {
        "details": "See {IERC721Metadata-tokenURI}."
      },
      "transferFrom(address,address,uint256)": {
        "details": "See {IERC721-transferFrom}."
      },
      "transferOwnership(address)": {
        "details": "Transfers ownership of the contract to a new account (`newOwner`). Can only be called by the current owner."
      }
    },
    "version": 1
  },
  "userdoc": {
    "kind": "user",
    "methods": {},
    "version": 1
  }
}